{
  "contractName": "GameContract",
  "abi": [
    {
      "constant": true,
      "inputs": [
        {
          "name": "",
          "type": "address"
        }
      ],
      "name": "playerNumber",
      "outputs": [
        {
          "name": "",
          "type": "uint256"
        }
      ],
      "payable": false,
      "stateMutability": "view",
      "type": "function"
    },
    {
      "constant": true,
      "inputs": [
        {
          "name": "",
          "type": "address"
        }
      ],
      "name": "numLoses",
      "outputs": [
        {
          "name": "",
          "type": "uint256"
        }
      ],
      "payable": false,
      "stateMutability": "view",
      "type": "function"
    },
    {
      "constant": true,
      "inputs": [
        {
          "name": "",
          "type": "address"
        }
      ],
      "name": "gg_token_balance",
      "outputs": [
        {
          "name": "",
          "type": "uint256"
        }
      ],
      "payable": false,
      "stateMutability": "view",
      "type": "function"
    },
    {
      "constant": true,
      "inputs": [],
      "name": "numPlayer",
      "outputs": [
        {
          "name": "",
          "type": "uint256"
        }
      ],
      "payable": false,
      "stateMutability": "view",
      "type": "function"
    },
    {
      "constant": true,
      "inputs": [
        {
          "name": "",
          "type": "address"
        }
      ],
      "name": "numWins",
      "outputs": [
        {
          "name": "",
          "type": "uint256"
        }
      ],
      "payable": false,
      "stateMutability": "view",
      "type": "function"
    },
    {
      "constant": false,
      "inputs": [],
      "name": "updataPlayers",
      "outputs": [],
      "payable": false,
      "stateMutability": "nonpayable",
      "type": "function"
    },
    {
      "constant": false,
      "inputs": [
        {
          "name": "_playerNumber",
          "type": "uint256"
        }
      ],
      "name": "setPlayer",
      "outputs": [],
      "payable": false,
      "stateMutability": "nonpayable",
      "type": "function"
    },
    {
      "constant": false,
      "inputs": [
        {
          "name": "_numWins",
          "type": "uint256"
        },
        {
          "name": "_numLoses",
          "type": "uint256"
        }
      ],
      "name": "setGame",
      "outputs": [],
      "payable": false,
      "stateMutability": "nonpayable",
      "type": "function"
    },
    {
      "constant": false,
      "inputs": [
        {
          "name": "_amount",
          "type": "uint256"
        }
      ],
      "name": "setTokenBalance",
      "outputs": [],
      "payable": false,
      "stateMutability": "nonpayable",
      "type": "function"
    },
    {
      "constant": false,
      "inputs": [
        {
          "name": "_amount",
          "type": "uint256"
        }
      ],
      "name": "updateTokenBalanceWin",
      "outputs": [],
      "payable": false,
      "stateMutability": "nonpayable",
      "type": "function"
    },
    {
      "constant": false,
      "inputs": [
        {
          "name": "_amount",
          "type": "uint256"
        }
      ],
      "name": "updateTokenBalanceLose",
      "outputs": [],
      "payable": false,
      "stateMutability": "nonpayable",
      "type": "function"
    },
    {
      "constant": true,
      "inputs": [],
      "name": "getNumPlayer",
      "outputs": [
        {
          "name": "",
          "type": "uint256"
        }
      ],
      "payable": false,
      "stateMutability": "view",
      "type": "function"
    },
    {
      "constant": true,
      "inputs": [
        {
          "name": "_addr",
          "type": "address"
        }
      ],
      "name": "getPlayer",
      "outputs": [
        {
          "name": "",
          "type": "uint256"
        }
      ],
      "payable": false,
      "stateMutability": "view",
      "type": "function"
    },
    {
      "constant": true,
      "inputs": [
        {
          "name": "_addr",
          "type": "address"
        }
      ],
      "name": "getTokenBalance",
      "outputs": [
        {
          "name": "",
          "type": "uint256"
        }
      ],
      "payable": false,
      "stateMutability": "view",
      "type": "function"
    },
    {
      "constant": false,
      "inputs": [
        {
          "name": "_machine",
          "type": "address"
        },
        {
          "name": "_bet",
          "type": "uint256"
        },
        {
          "name": "_tokenAmount",
          "type": "uint256"
        }
      ],
      "name": "gamePlay",
      "outputs": [
        {
          "name": "sufficient",
          "type": "uint256"
        }
      ],
      "payable": false,
      "stateMutability": "nonpayable",
      "type": "function"
    }
  ],
  "bytecode": "0x60806040526000805534801561001457600080fd5b50610956806100246000396000f3fe6080604052600436106100db576000357c0100000000000000000000000000000000000000000000000000000000900463ffffffff168063129f960e146100e05780631f80ee521461011b578063242f15ba146101565780633aecd0e3146101915780633fc6105a146101f65780634e4c35941461025b5780635069e0ad146102c057806356d061d21461032f5780635c12cd4b146103945780635f92b80e146103f957806390d5d0c314610424578063991c17411461044f5780639ba99785146104b4578063c9d9cd39146104cb578063f25bc24514610506575b600080fd5b3480156100ec57600080fd5b506101196004803603602081101561010357600080fd5b810190808035906020019092919050505061054b565b005b34801561012757600080fd5b506101546004803603602081101561013e57600080fd5b810190808035906020019092919050505061059b565b005b34801561016257600080fd5b5061018f6004803603602081101561017957600080fd5b81019080803590602001909291905050506105e2565b005b34801561019d57600080fd5b506101e0600480360360208110156101b457600080fd5b81019080803573ffffffffffffffffffffffffffffffffffffffff169060200190929190505050610629565b6040518082815260200191505060405180910390f35b34801561020257600080fd5b506102456004803603602081101561021957600080fd5b81019080803573ffffffffffffffffffffffffffffffffffffffff169060200190929190505050610672565b6040518082815260200191505060405180910390f35b34801561026757600080fd5b506102aa6004803603602081101561027e57600080fd5b81019080803573ffffffffffffffffffffffffffffffffffffffff16906020019092919050505061068a565b6040518082815260200191505060405180910390f35b3480156102cc57600080fd5b50610319600480360360408110156102e357600080fd5b81019080803573ffffffffffffffffffffffffffffffffffffffff169060200190929190803590602001909291905050506106a2565b6040518082815260200191505060405180910390f35b34801561033b57600080fd5b5061037e6004803603602081101561035257600080fd5b81019080803573ffffffffffffffffffffffffffffffffffffffff1690602001909291905050506107b8565b6040518082815260200191505060405180910390f35b3480156103a057600080fd5b506103e3600480360360208110156103b757600080fd5b81019080803573ffffffffffffffffffffffffffffffffffffffff1690602001909291905050506107d0565b6040518082815260200191505060405180910390f35b34801561040557600080fd5b5061040e610819565b6040518082815260200191505060405180910390f35b34801561043057600080fd5b50610439610822565b6040518082815260200191505060405180910390f35b34801561045b57600080fd5b5061049e6004803603602081101561047257600080fd5b81019080803573ffffffffffffffffffffffffffffffffffffffff169060200190929190505050610828565b6040518082815260200191505060405180910390f35b3480156104c057600080fd5b506104c9610840565b005b3480156104d757600080fd5b50610504600480360360208110156104ee57600080fd5b810190808035906020019092919050505061084e565b005b34801561051257600080fd5b506105496004803603604081101561052957600080fd5b81019080803590602001909291908035906020019092919050505061089e565b005b80600460003373ffffffffffffffffffffffffffffffffffffffff1673ffffffffffffffffffffffffffffffffffffffff1681526020019081526020016000206000828254039250508190555050565b80600460003373ffffffffffffffffffffffffffffffffffffffff1673ffffffffffffffffffffffffffffffffffffffff1681526020019081526020016000208190555050565b80600160003373ffffffffffffffffffffffffffffffffffffffff1673ffffffffffffffffffffffffffffffffffffffff1681526020019081526020016000208190555050565b6000600460008373ffffffffffffffffffffffffffffffffffffffff1673ffffffffffffffffffffffffffffffffffffffff168152602001908152602001600020549050919050565b60016020528060005260406000206000915090505481565b60036020528060005260406000206000915090505481565b600081600460003373ffffffffffffffffffffffffffffffffffffffff1673ffffffffffffffffffffffffffffffffffffffff1681526020019081526020016000205401600460003373ffffffffffffffffffffffffffffffffffffffff1673ffffffffffffffffffffffffffffffffffffffff1681526020019081526020016000208190555081600460008573ffffffffffffffffffffffffffffffffffffffff1673ffffffffffffffffffffffffffffffffffffffff1681526020019081526020016000205403600460008573ffffffffffffffffffffffffffffffffffffffff1673ffffffffffffffffffffffffffffffffffffffff168152602001908152602001600020819055506000905092915050565b60046020528060005260406000206000915090505481565b6000600160008373ffffffffffffffffffffffffffffffffffffffff1673ffffffffffffffffffffffffffffffffffffffff168152602001908152602001600020549050919050565b60008054905090565b60005481565b60026020528060005260406000206000915090505481565b600160005401600081905550565b80600460003373ffffffffffffffffffffffffffffffffffffffff1673ffffffffffffffffffffffffffffffffffffffff1681526020019081526020016000206000828254019250508190555050565b81600260003373ffffffffffffffffffffffffffffffffffffffff1673ffffffffffffffffffffffffffffffffffffffff1681526020019081526020016000208190555080600360003373ffffffffffffffffffffffffffffffffffffffff1673ffffffffffffffffffffffffffffffffffffffff16815260200190815260200160002081905550505056fea165627a7a7230582062464b3d8106cc60e0327bcf07ed0cf4650055c86b2ea3d957a460add5d31fea0029",
  "source": "pragma solidity ^0.5.0;\n\ncontract GameContract {\n  uint public numPlayer = 0;\n\n  //User data\n  mapping (address => uint) public playerNumber;\n\n  //Game Data, I think we do not need qrcode cuz qrcode itself has num W/L and token bal.\n  mapping (address => uint) public numWins;\n  mapping (address => uint) public numLoses;\n//  mapping (address => string) public qrcode;\n\n  //Token ; coin data\n  mapping (address => uint) public gg_token_balance;\n\n  //Token to dollar ? Maybe we don't need this.\n  //mapping (address => unit) public gg_usd_rate;\n\n  //add player\n  function updataPlayers() public{\n    numPlayer = numPlayer +1 ;\n  }\n\n  function setPlayer(uint _playerNumber) public{\n    playerNumber[msg.sender] = _playerNumber;\n  }\n\n  function setGame(uint _numWins, uint _numLoses) public{\n    numWins[msg.sender] = _numWins;\n    numLoses[msg.sender] = _numLoses;\n  }\n\n  function setTokenBalance(uint _amount) public{\n    gg_token_balance[msg.sender] = _amount;\n  }\n\n  function updateTokenBalanceWin(uint _amount) public{\n    gg_token_balance[msg.sender] += _amount;\n  }\n  function updateTokenBalanceLose(uint _amount) public{\n    gg_token_balance[msg.sender] -= _amount;\n  }\n\n  function getNumPlayer() public view returns(uint){\n    return numPlayer;\n  }\n\n  function getPlayer(address _addr) public view returns(uint)\n  {\n    return (playerNumber[_addr]);\n  }\n\n  function getTokenBalance(address _addr) public view returns(uint) {\n    return gg_token_balance[_addr];\n  }\n\n  function gamePlay(address _machine, uint _bet) public returns (uint sufficient){\n  //  if(gg_token_balance[msg.sender] < bet)\n  //    return 0;\n      //too much bet\n\n    gg_token_balance[msg.sender] = gg_token_balance[msg.sender] + _bet;\n    gg_token_balance[_machine] = gg_token_balance[_machine] - _bet;\n    return 0;\n\n  }\n\n}\n",
  "sourcePath": "/Users/cholhyunpark/Desktop/game_contract/contracts/GameContract.sol",
  "compiler": {
    "name": "solc",
    "version": "0.5.0+commit.1d4f565a.Emscripten.clang"
  },
  "schemaVersion": "3.0.9",
  "updatedAt": "2019-05-21T19:46:57.457Z",
  "devdoc": {
    "methods": {}
  },
  "userdoc": {
    "methods": {}
  }
}